:020000040000FA
:100000000C94CB030C94FC030C94FC030C94FC03A5
:100010000C94FC030C94FC030C94FC030C94FC0364
:100020000C94FC030C94FC030C94FC030C94FC0354
:100030000C94FC030C94FC030C94FC030C94FC0344
:100040000C94FC030C94FC030C94FC030C94FC0334
:100050000C94FC030C94FC030C94FC030C94380CDF
:100060000C94FC030C94AC0C0C94820C0C94FC03CC
:100070000C94FC030C94FC030C94FC030C94FC0304
:100080000C94FC030C94FC030C94FC030C94FC03F4
:100090000C94FC030C94FC030C94FC030C94E20CF5
:1000A0000C94FC030C94FC030C94FC030C94FC03D4
:1000B0000C94FC030C94FC030C94FC030C94FC03C4
:1000C0000C94FC030C94FC030C94FC030C94FC03B4
:1000D0000C94FC030C94FC030C94FC030C94FC03A4
:1000E0000C94FC030C9465040C9445040C945D047E
:1000F0000C942A040C9438040C9449040C944F0476
:100100000C9434040C9437050C943C040C946A044D
:100110000C94FB040C9430040C943F040C944B0599
:100120000C9457040C946B040C9411140C94280533
:100130000C94020E0C94DE050C9461040C94910551
:100140000C946F040C9453040C9459054E414E4981
:100150004E495459494E46CDCCCC3D0AD7233C1785
:10016000B7D13877CC2B329595E6241FB14F0A00D2
:100170000020410000C84200401C4620BCBE4CCAC2
:100180001B0E5AAEC59D7420202020202020202048
:10019000202020202020202020202020202020205F
:1001A000202020202020202020202020202020204F
:1001B000202020202020202020202020202020203F
:1001C000202020202020202020202020202020202F
:1001D000202020202020202020202020202020201F
:1001E000002020E2959AE29590E2959D2020202023
:1001F00020E2959AE29590E2959DE2959AE295909B
:10020000E2959DE2959AE29590E2959D202020202E
:1002100020E2959AE29590E29590E29590E2959091
:10022000E29590E29590E2959DE2959AE29590E2B2
:100230009590E29590E29590E29590E29590E29506
:100240009DE2959AE29590E2959D2020E2959AE2B2
:100250009590E2959DE2959AE29590E2959D2020F9
:10026000E2959AE29590E2959D2020202020202082
:10027000202020202020202020202020202020207E
:100280002020202020202020202020002020E29656
:1002900088E29688E2959120E2959AE29590E2951F
:1002A0009D20E29688E29688E29591E29688E29611
:1002B00088E29591E29688E29688E2959120202046
:1002C0002020E29688E29688E29688E29688E29676
:1002D00088E29688E29688E29597E29688E2968888
:1002E000E29688E29688E29688E29688E29688E22C
:1002F0009597E29688E29688E295912020E296888A
:10030000E29688E29591E29688E29688E2959120BD
:1003100020E29688E29688E29591202020202020F5
:1003200020202020202020202020202020202020CD
:10033000202020202020202020202020002020E21B
:100340009688E29688E29591E2959AE29688E296FE
:1003500088E29594E2959DE29688E29688E29591EE
:10036000E29688E29688E29591E29688E29688E2A3
:100370009594E29590E29590E29590E2959D20E229
:100380009688E29688E295912020202020E29688A7
:10039000E29688E29594E29590E29590E2959D2010
:1003A00020E29688E29688E29594E29590E2959014
:1003B000E29688E29688E29597E29688E29688E24D
:1003C0009594E29590E29590E29688E29688E2957F
:1003D00091202020202020202020202020202020AC
:1003E000202020202020202020202020202020200D
:1003F000202020002020E29688E29688E29594E270
:100400009688E29688E29688E29688E29594E2964B
:1004100088E29688E29591E29688E29688E2959144
:10042000E29688E29688E29688E29688E29688E2EA
:100430009688E29594E2959DE29688E29688E29508
:10044000912020202020E29688E29688E29688E299
:100450009688E29688E295972020E29688E2968830
:10046000E29688E29688E29688E29688E29594E29F
:10047000959DE29688E29688E29688E29688E296D2
:1004800088E29688E29688E295912020202020201C
:10049000202020202020202020202020202020205C
:1004A000202020202020202020202020002020E2AA
:1004B0009688E29688E29688E29688E2959720E20E
:1004C0009688E29688E29688E29688E29591E2968E
:1004D00088E29688E29591E29688E29688E2959481
:1004E000E29590E29590E29688E29688E29597E20E
:1004F0009688E29688E295912020202020E2968836
:10050000E29688E29594E29590E29590E29590E2E9
:100510009590E2959DE29688E29688E29594E29520
:1005200090E29590E29688E29688E29597E2968826
:10053000E29688E29594E29590E29590E29688E2C0
:100540009688E2959720202020202020202020201F
:10055000202020202020202020202020202020209B
:1005600020202020202020002020E29688E296886B
:10057000E29688E29597202020E29688E29688E22B
:100580009688E29597E29688E29688E29597E296B9
:1005900088E29688E29688E29688E29688E29688D3
:1005A000E2959720E29688E29688E29597202020AF
:1005B0002020E29688E29688E29688E29688E29683
:1005C00088E29688E29688E29597E29688E2968895
:1005D000E29688E29688E29688E29688E2959720ED
:1005E00020E29688E29688E29688E29688E29688EB
:1005F000E29597202020202020202020202020204D
:1006000020202020202020202020202020202020EA
:1006100020202020202000202020202020202020FA
:1006200020202020202020202020202020202020CA
:1006300020202020202020202020202020202020BA
:1006400020202020202020202020202020202020AA
:10065000202020202020202020202020202020209A
:10066000202020202020202020202020202020208A
:100670000000002100240027002A002D0030003354
:100680000001010000040107010A01000022002509
:100690000028002B002E003100340002010000056C
:1006A0000108010B01000020002300260029002C76
:1006B000002F0032000001000003010601090105BE
:1006C000050505070508080808020202020A0A08CB
:1006D00008040404040101010101010101030303F1
:1006E0000303030303040707070C0C0C0C0C0C0C8E
:1006F0000C0202020206060606060606060B0B0B95
:100700000B0B0B0B0B0102102020080810204010CF
:1007100020408002010201080402010102040810C5
:1007200020408080402010080402018004020180E3
:10073000402010080402010804020101020408100C
:10074000204080010204081020408000000A0B02B3
:10075000090C0D0E08070304010000000000000052
:100760000000000000000000000000000000000089
:100770000000000000000012111000000000000046
:100780000000000000000000000000000000000069
:100790000000020E111411241FBECFEFD1E2DEBF04
:1007A000CDBF00E00CBF20E1A6EDB3E001C01D927B
:1007B000A335B207E1F713E0A0E0B2E0E4E6F5E329
:1007C00000E00BBF02C007900D92A63DB107D9F71C
:1007D00013E0CAECD3E000E006C021970109802FA6
:1007E000FE010E947918C93CD10780E00807A9F7EB
:1007F0000E943A0E0C94A01A0C940000FC01248173
:100800003581232B21F080819181009721F4109272
:10081000A30F83EA9FE008958150823108F05AC007
:10082000E82FF0E08827E85EFB4F8F4F0C94791893
:1008300038043C042A04300434046A043F044504A8
:1008400049044F04530457045D0461046A046504B9
:100850006B046F04809180008F77809380000895EF
:10086000809180008F7DF9CF80918000877FF5CFC8
:1008700084B58F7784BD089584B58F7DFBCF80913B
:10088000B0008F778093B00008958091B0008F7D85
:10089000F9CF809190008F77809390000895809198
:1008A00090008F7DF9CF80919000877FF5CF809168
:1008B000A0008F778093A00008958091A0008F7D85
:1008C000F9CF8091A000877FF5CF809120018F77AD
:1008D000809320010895809120018F7DF9CF809130
:1008E0002001877FF5CFCF93DF93282F30E0F901E8
:1008F000E55BF84F8491F901EB5FF84FD491F90172
:10090000E154F94FC491CC23A1F081110E940C0451
:10091000EC2FF0E0EE0FFF1FEB55F94FA591B491CE
:10092000EC91ED2381E090E009F480E0DF91CF913C
:10093000089580E090E0FACF1F93CF93DF93282FA4
:1009400030E0F901E55BF84F8491F901EB5FF84F76
:10095000D491F901E154F94FC491CC23A9F0162F99
:1009600081110E940C04EC2FF0E0EE0FFF1FE55701
:10097000F94FA591B4918FB7F894EC91111108C07B
:10098000D095DE23DC938FBFDF91CF911F91089527
:10099000DE2BF8CFCF93DF9390E0FC01EB5FF84FB5
:1009A00024918154994FFC0184918823D1F090E0E7
:1009B000880F991FFC01EF58F94FA591B491FC01E4
:1009C000E557F94FC591D491623071F49FB7F8940F
:1009D0003C91822F809583238C93E8812E2B288352
:1009E0009FBFDF91CF9108958FB7F894EC912E2B94
:1009F0002C938FBFF6CFAF92BF92CF92DF92EF9240
:100A0000FF920F931F93CF93DF936C017B018B01B8
:100A1000040F151FEB015E01AE18BF08C017D10708
:100A200059F06991D601ED91FC910190F081E02D92
:100A3000C6011995892B79F7C501DF91CF911F91D7
:100A40000F91FF90EF90DF90CF90BF90AF900895FF
:100A5000FC01538D448D252F30E0842F90E0821BC4
:100A6000930B541710F0CF96089501970895FC0149
:100A7000918D828D981761F0A28DAE0FBF2FB11DA1
:100A80005D968C91928D9F5F9F73928F90E00895F9
:100A90008FEF9FEF0895FC01918D828D981731F0B3
:100AA000828DE80FF11D858D90E008958FEF9FEF07
:100AB0000895FC01918D228D892F90E0805C9F4FDD
:100AC000821B91098F739927089584EA9FE00E9401
:100AD000590521E0892B09F420E0822F0895FC01BB
:100AE000A48DA80FB92FB11DA35ABF4F2C91848D8F
:100AF00090E001968F739927848FA689B7892C93EC
:100B0000A089B1898C91837080648C93938D848D3E
:100B1000981306C00288F389E02D80818F7D808341
:100B20000895EF92FF920F931F93CF93DF93EC0101
:100B300081E0888F9B8D8C8D98131AC0E889F98984
:100B4000808185FF15C09FB7F894EE89FF89608387
:100B5000E889F98980818370806480839FBF81E008
:100B600090E0DF91CF911F910F91FF90EF9008954A
:100B7000F62E0B8D10E00F5F1F4F0F731127E02E25
:100B80008C8D8E110CC00FB607FCFACFE889F9895D
:100B9000808185FFF5CFCE010E946F05F1CFEB8DEF
:100BA000EC0FFD2FF11DE35AFF4FF0829FB7F89431
:100BB0000B8FEA89FB8980818062CFCFCF93DF934F
:100BC000EC01888D8823B9F0AA89BB89E889F98965
:100BD0008C9185FD03C0808186FD0DC00FB607FC9A
:100BE000F7CF8C9185FFF2CF808185FFEDCFCE01CD
:100BF0000E946F05E9CFDF91CF91089580E090E0EA
:100C0000892B29F00E94650581110E94000080E077
:100C100090E0892B49F080E090E0892B29F00E9438
:100C2000000081110E94000080E090E0892B49F0D3
:100C300080E090E0892B29F00E94000081110E9441
:100C4000000080E090E0892B49F080E090E0892B63
:100C500029F00E94000081110C9400000895209159
:100C6000FD03260F3327331F21323105ECF4209189
:100C70002104FC0190E080E0243069F082E00895D6
:100C8000A091FD032191AC0143525C4FA40FB52FFD
:100C9000B11D2C930196861798F38091FD03680F80
:100CA0006093FD0380E0089581E0089508958FEF3B
:100CB0009FEF08958FEF9FEF08958091D60390E006
:100CC0009195819591090895CF93DF93CB01EA0126
:100CD000642F0E942F06CE01DF91CF910895CF930C
:100CE000DF931F92CDB7DEB7698361E0CE01019635
:100CF0000E942F0681E090E00F90DF91CF91089540
:100D000090E080E008953F924F925F926F927F92C1
:100D10008F929F92AF92BF92CF92DF92EF92FF920B
:100D20000F931F93CF93DF9300D000D0CDB7DEB7E2
:100D300049015A01009709F45FC08130910509F417
:100D400065C0039709F46BC0F4E6CF2ED12CE12CDB
:100D5000F12C87E3A6E33A2E0E949C04C701B6015A
:100D60000E94DF15A50194010E943E162B013C0153
:100D7000C12CD12C7601C801110FAA0BBB0B8983A2
:100D80009A83AB83BC8394ED892E90E3992EA12C9A
:100D9000B12CA7019601C301B2010E942E181816AA
:100DA0000CF047C061E0832D0E949C04C501B40192
:100DB00029813A814B815C810E945A18D901AA0F7E
:100DC000BB1FAA0FBB1F1597BE83AD83CD01019733
:100DD000F1F760E0832D0E949C048D819E81019734
:100DE000F1F720E030E040E85FE3C701B6010E9480
:100DF0001A176B017C01CDCF70E9C72EDD24D39487
:100E0000E12CF12C8CE1EAE13E2EA6CFC12C42E38D
:100E1000D42EE12CF12C8DE35CE3352E9DCF20E820
:100E2000C22E2CE0D22EE12CF12C80E33EE2332EB8
:100E300093CF26960FB6F894DEBF0FBECDBFDF91DD
:100E4000CF911F910F91FF90EF90DF90CF90BF90C7
:100E5000AF909F908F907F906F905F904F903F905A
:100E60000895AF92BF92CF92DF92EF92FF920F93CD
:100E70001F93CF93DF937C01B62E892BA9F5609148
:100E80004B0470914C0480914D0490914E040E944B
:100E9000F81710924B0410924C0410924D041092CB
:100EA0004E0490E5C92ED12CC1E0D0E08C2F81708A
:100EB000A82E65507109072E000C880B990B0E9413
:100EC000DF159B01AC0108E710E06A2DC7010E9405
:100ED00083068B2D0E947304892B49F1860120E043
:100EE00030E040E85FE3F1CF82E0E816F104C1F4BE
:100EF00060914704709148048091490490914A049C
:100F00000E94F81710924704109248041092490466
:100F100010924A048FE0C82ED12CD0E0C0E0C6CF9A
:100F2000D12CC12CD0E0C0E070E060E0BFCF81E008
:100F3000C8276C2F6170860120E030E040EA50E461
:100F4000C7010E9483068B2D0E947304892B39F000
:100F5000860120E030E040E85FE36A2DF1CFDF91C9
:100F6000CF911F910F91FF90EF90DF90CF90BF90A6
:100F7000AF900895FC0101900020E9F73197AF018F
:100F8000481B590BBC0184EA9FE00C94FB048F9230
:100F90009F92AF92BF920F931F93CF93DF93CDB7E2
:100FA000DEB7A1970FB6F894DEBF0FBECDBF19A272
:100FB000423008F44AE08E010F5D1F4F842E912CC1
:100FC000B12CA12CA50194010E943818E62FB9017B
:100FD000CA01EA30F4F4E05DD801EE938D01232BD1
:100FE000242B252B79F790E080E0109719F0CD01A4
:100FF0000E94BA07A1960FB6F894DEBF0FBECDBF10
:10100000DF91CF911F910F91BF90AF909F908F90E4
:101010000895E95CE1CFCF92DF92EF92FF92CF93F8
:10102000DF9397FF1BC06B017C016DE284EA9FE0B8
:101030000E949105EC0166277727CB016C197D0989
:101040008E099F094AE00E94C7078C0F9D1FDF9100
:10105000CF91FF90EF90DF90CF9008954AE0DF911D
:10106000CF91FF90EF90DF90CF900C94C707CF9374
:10107000DF930E94BA07EC018EE192E00E94BA076A
:101080008C0F9D1FDF91CF9108954F925F926F92C9
:101090007F928F929F92AF92BF92CF92DF92EF9208
:1010A000FF920F931F93CF936B017C01742EAC01C1
:1010B0009B010E943318882399F081E292E0CF913E
:1010C0001F910F91FF90EF90DF90CF90BF90AF9066
:1010D0009F908F907F906F905F904F900C94BA0785
:1010E00046015701E894B7F82FEF3FEF4FE75FE76E
:1010F000C501B4010E94331881110DC02FEF3FEFDD
:101100004FE75FE7C501B4010E94D81518161CF41B
:1011100085E292E0D4CF2FEF3FEF4FE75FE4C701C6
:10112000B6010E942E1818161CF489E292E0C7CF6F
:101130002FEF3FEF4FE75FECC701B6010E94D815D4
:1011400087FDF3CF20E030E0A901C701B6010E947E
:10115000D81510E000E087FF0AC06DE284EA9FE046
:101160000E9491058C01F7FAF094F7F8F094C0E032
:1011700060E070E080E09FE37C1641F020E030E02A
:1011800040E251E40E948617CF5FF6CFA701960197
:101190000E941A172B013C010E94FF174B015C01B2
:1011A0004AE00E94C7077C01E00EF11ECC23C1F18A
:1011B000C501B4010E94DD159B01AC01C301B20160
:1011C0000E9419174B015C016EE284EA9FE00E94C5
:1011D0009105E80EF91EC15018F120E030E040E220
:1011E00051E4C501B4010E943E162B013C010E944E
:1011F000FF174B01B12CA12C4AE0C501B4010E949C
:10120000C707E80EF91EC501B4010E94DD159B0158
:10121000AC01C301B2010E9419174B015C01DBCF85
:10122000C701CF911F910F91FF90EF90DF90CF906A
:10123000BF90AF909F908F907F906F905F904F90F6
:1012400008950C94BA078DE292E00E942109609102
:101250004B0470914C0480914D0490914E0442E0F7
:101260000E94450882E392E00E9421096091930F59
:101270007091940F8091950F9091960F42E00E948B
:10128000450887E392E00E9421096091470470912C
:1012900048048091490490914A0442E00E94450824
:1012A0008FE192E00C9421090F931F93CF93DF936A
:1012B0008C01D0E0C0E0F801EC0FFD1F64916623C3
:1012C00041F084EA9FE00E949105892B11F021965C
:1012D000F2CF8EE192E00E94BA078C0F9D1FDF9142
:1012E000CF911F910F910895CF93DF93FC0144811B
:1012F00055816081718184EA9FE00E94FB04EC01CA
:101300008EE192E00E94BA078C0F9D1FDF91CF9172
:101310000895CF93DF93EC0188819981009711F0B4
:101320000E941D19198218821D821C821B821A823A
:10133000DF91CF910895FC0180819181009711F098
:101340000C941D190895FC0124813581232B39F457
:1013500021E0FB018081882349F020E007C08081E3
:1013600091810E94901A21E0892BB9F7822F08956C
:101370000F931F93CF93DF93EC018881998100979E
:1013800059F02A813B812617370730F081E0DF9141
:10139000CF911F910F9108958B016F5F7F4F0E9436
:1013A000A619009759F0998388831B830A832C819F
:1013B0003D81232B59F7FC011082E8CF80E0E7CF75
:1013C000EF92FF920F931F93CF93DF9361157105F7
:1013D00041F480E0DF91CF911F910F91FF90EF904A
:1013E000089541155105B1F07B01EC010C811D817F
:1013F000040F151FB8010E94B809882351F32881F2
:1014000039818C819D81B701820F931F0E94991AA7
:101410001D830C8381E0DECFEF92FF920F931F9329
:10142000CF93DF93EC017B018A01BA010E94B809D6
:1014300081110BC0CE010E948909CE01DF91CF91AD
:101440001F910F91FF90EF9008951D830C83B701BA
:10145000888199810E94991AF0CFFC011182108233
:101460001382128215821482F0E187349F0769F09B
:1014700060914710709148106115710531F04091ED
:101480004B1050914C100C940C0A0895FB010190E4
:101490000020E9F73197AF01461B570B0C940C0A5B
:1014A000AF92BF92CF92DF92EF92FF920F931F9372
:1014B000CF93DF93EC017B015A01CC24C394D12C50
:1014C000452B29F4D12CC12CAA24A394B12C198228
:1014D00018821B821A821D821C8250E040E060E26A
:1014E00072E0CE010E940C0AD70114960D911C9156
:1014F000C016D106E8F4A016B10608F48501D7019C
:10150000ED91FC911197E00FF11FB08010826D9169
:101510007C916C0D7D1DCE0161157105A9F00E94B5
:10152000460AF70180819181080F191FD801BC92EA
:10153000CE01DF91CF911F910F91FF90EF90DF903F
:10154000CF90BF90AF9008950E948909EACFCF92C3
:10155000DF92EF92FF92CF93DF938CE392E00E94B1
:1015600037088AE692E00E9421096091970F7091F6
:10157000980F072E000C880B990B0E940B088EE128
:1015800092E00E94BA07CFE4D4E0C12CD12C7601BE
:10159000C6012091970F3091980FC216D3066CF5B3
:1015A000853091052CF025503109C216D306F4F090
:1015B0008CE892E00E942109C701B6010E940B0845
:1015C00083E992E00E942109688179818A819B8167
:1015D00044E00E9445088EE192E00E94BA078FEF36
:1015E000C81AD80AE80AF80A2496D2CF0597B9F79C
:1015F00087E992E00E943708F2CF1092980F10927C
:10160000970F1092990F8FEF9FEF909305028093A1
:10161000040260E272E081E490E1DF91CF91FF90FB
:10162000EF90DF90CF900C94460AFC01118210825B
:101630001382128215821482FB0101900020E9F7C7
:101640003197AF01461B570B0C940C0A1F93CF9395
:10165000DF9385ED8093BC008091D9039091DA03EC
:10166000A091DB03B091DC030796A11DB11D23E01F
:10167000B695A795979587952A95D1F72091BC00A7
:1016800024FD03C01092210452C04091D90350910F
:10169000DA036091DB037091DC03452B462B472B6B
:1016A00069F30097A105B10541F02AE22A95F1F707
:1016B00000C00197A109B109E1CF8091D803C1E031
:1016C000C093D703882399F1D091B8001091BA0044
:1016D0008091BC008A7B8093BC0060E084E10E9422
:1016E0009C0460E085E10E949C0410922104C09358
:1016F00023041092220461E084E10E949C0461E0D2
:1017000085E10E949C048091B9008E7F8093B9008E
:101710008091B9008D7F8093B90088E48093B800F0
:1017200085E48093BC001093BA00D093B800DF9199
:10173000CF911F910895CF92DF92EF92FF920F9376
:101740001F93CF93DF93E0904710F0904810E1147F
:10175000F10441F0C0914B10D0914C1087012097BB
:1017600009F040C080914B1090914C10892B09F4E6
:1017700076C08091471090914810009709F46BC093
:101780000E941914C091970FD091980FFE01EE0F8F
:10179000FF1FEE0FFF1FE15BFB4F608371838283AE
:1017A00093832196D093980FC093970F60E272E0D5
:1017B00087E490E10E94460AC03DD2400CF44FC03D
:1017C00081E08093990F87ED92E00E943708DF91C6
:1017D000CF911F910F91FF90EF90DF90CF900C94DD
:1017E000A70A860168018FEFC81AD80AF80180811C
:1017F000082E000C990B0E94B715892B91F72197A1
:10180000CE0DDF1D8881082E000C990B0E94B715A4
:10181000892B29F0C017D10710F02197F3CFAE0123
:101820004F5F5F4F401B510B50934C1040934B1038
:10183000E016F10620F4B801C7010E94871AE09172
:101840004710F091481080914B1090914C10E80F88
:10185000F91F108287CF60E070E0CB0193CFDF915A
:10186000CF911F910F91FF90EF90DF90CF9008954F
:101870001F920F920FB60F9211242F933F938F93C5
:101880009F93AF93BF9380919F0F9091A00FA091D2
:10189000A10FB091A20F30919E0F23E0230F2D379F
:1018A00058F50196A11DB11D20939E0F80939F0FA7
:1018B0009093A00FA093A10FB093A20F80919A0FC5
:1018C00090919B0FA0919C0FB0919D0F0196A11D2F
:1018D000B11D80939A0F90939B0FA0939C0FB09390
:1018E0009D0FBF91AF919F918F913F912F910F903D
:1018F0000FBE0F901F90189526E8230F0296A11D8A
:10190000B11DD2CF1F920F920FB60F9211240BB6BA
:101910000F922F933F934F935F936F937F938F9388
:101920009F93AF93BF93EF93FF9384EA9FE00E944E
:101930006F05FF91EF91BF91AF919F918F917F9133
:101940006F915F914F913F912F910F900BBE0F9030
:101950000FBE0F901F9018951F920F920FB60F9207
:1019600011240BB60F922F938F939F93EF93FF93B6
:10197000E091B40FF091B50F8081E091BA0FF09132
:10198000BB0F82FD1DC090818091BD0F8F5F8F7353
:101990002091BE0F821741F0E091BD0FF0E0EC55B1
:1019A000F04F958F8093BD0FFF91EF919F918F9195
:1019B0002F910F900BBE0F900FBE0F901F90189598
:1019C0008081F2CF1F920F920FB60F9211240BB6A7
:1019D0000F922F933F934F935F936F937F938F93C8
:1019E0009F93AF93BF93EF93FF938091B900887F4C
:1019F000803609F44DC008F040C0883209F4A7C011
:101A000028F5803109F49BC0C8F4882309F4F7C095
:101A1000883009F494C0FF91EF91BF91AF919F91ED
:101A20008F917F916F915F914F913F912F910F9087
:101A30000BBE0F900FBE0F901F901895883109F4C0
:101A400086C0803241F78093200414C0803409F4AA
:101A50009BC040F48033B9F38833E9F680932004C7
:101A600085ECAEC0803509F483C0883509F494C094
:101A7000883489F60E94260BCECF883909F48AC0B3
:101A800038F5883729F050F4883611F0803719F688
:101A900083E08093210410921F0455C0883809F414
:101AA00079C0803919F0803809F0B5CF80911F04D2
:101AB000803208F06FC0E0911F0481E08E0F8093A8
:101AC0001F048091BB00F0E0E150FC4F80833BC0DD
:101AD000803B39F0D0F4803A09F477C0883A09F0B5
:101AE0009ACF84E0809321041092FE031092FD03AC
:101AF000F0E0E0E019958091FD0381110FC081E0D5
:101B00008093FD031092DD0309C0803C09F4A8CF47
:101B1000883C09F4A5CF883B09F07DCFE091FE0316
:101B200081E08E0F8093FE03F0E0E352FC4F808152
:101B30008093BB009091FE038091FD0329C08091AA
:101B400046048093BB0085EC8093BC0064CF9091E9
:101B5000450480914404981758F5E091450481E0CC
:101B60008E0F80934504F0E0EC5DFB4F8081E9CF60
:101B7000E091450481E08E0F809345048091BB0085
:101B8000F0E0EC5DFB4F808390914504809144042C
:101B90009817C8F285E8D8CFE091450481E08E0F10
:101BA000809345048091BB00F0E0EC5DFB4F8083A7
:101BB0008091230481115ECF81E08093220484EA26
:101BC0008093BC001092210426CF85EC8093BC004A
:101BD0001092210480911F04803230F4E0911F04A0
:101BE000F0E0E150FC4F108260911F0470E08FEF35
:101BF00093E0F0E0E0E0199510921F040CCF1092F2
:101C0000200438CFE4EAFFE01382128288EE93E0EA
:101C1000A0E0B0E084839583A683B78380E192E05F
:101C20009183808385EC90E09587848784EC90E0B5
:101C30009787868780EC90E0918B808B81EC90E099
:101C4000938B828B82EC90E0958B848B86EC90E07A
:101C5000978B868B118E128E138E148E60E272E03B
:101C600087E490E10E94150B60E272E081E490E16C
:101C70000C94150BCF93DF93CDB7DEB72D970FB62E
:101C8000F894DEBF0FBECDBF789484B5826084BD6A
:101C900084B5816084BD85B5826085BD85B5816070
:101CA00085BD80916E00816080936E0010928100EE
:101CB00080918100826080938100809181008160A9
:101CC000809381008091800081608093800080916A
:101CD000B10084608093B1008091B00081608093F6
:101CE000B00080919100826080939100809191007A
:101CF000816080939100809190008160809390003A
:101D00008091A10082608093A1008091A1008160F8
:101D10008093A1008091A00081608093A0008091B9
:101D20002101826080932101809121018160809353
:101D300021018091200181608093200180917A00AF
:101D4000846080937A0080917A00826080937A0028
:101D500080917A00816080937A0080917A00806817
:101D600080937A001092C100E091B40FF091B50F0A
:101D700082E08083E091B00FF091B10F1082E0918A
:101D8000B20FF091B30F80E180831092BC0FE0910D
:101D9000B80FF091B90F86E08083E091B60FF09113
:101DA000B70F808180618083E091B60FF091B70F0B
:101DB000808188608083E091B60FF091B70F8081B9
:101DC00080688083E091B60FF091B70F80818F7D9E
:101DD000808387E196E00E94540988E695E00E949E
:101DE00054098DEA94E00E94540984EF93E00E9424
:101DF00054098DE393E00E9454098CE892E00E941C
:101E0000540981EE91E00E94540987E891E00E9414
:101E1000540962E088E00E94CA0461E08AE10E94FD
:101E2000CA0461E08CE10E94CA0461E088E10E947A
:101E3000CA0460E088E10E949C0461E08CE10E9499
:101E40009C0461E08CE30E94CA0461E08DE30E947F
:101E5000CA0461E088E30E94CA0460E088E30E944B
:101E60009C0461E08DE30E949C0461E08EE20E948C
:101E7000CA0461E080E30E94CA0461E08EE30E942C
:101E8000CA0460E08EE30E949C0461E080E30E944B
:101E90009C0461E086E30E94CA0461E087E30E943B
:101EA000CA0461E086E20E94CA0460E086E20E9401
:101EB0009C0461E087E30E949C0460E088E00E944B
:101EC0009C0462E083E00E94CA0462E082E00E9417
:101ED000CA0473E6672E712C84EA9FE00E945905BC
:101EE000181619060CF0A4C04090990F4110A0C01C
:101EF00084EA9FE00E9437058D87E0900402F0900D
:101F000005022FEFE216F20609F088C08A3021F3AD
:101F10008D3011F3803201F389831A8241E050E061
:101F2000BE016F5F7F4F81E490E10E94E0096CE0A9
:101F300073E081E490E10E94A309882369F0709224
:101F400005026092040280E193E00E94370860E29B
:101F500072E087E490E15FC06CE473E081E490E1BB
:101F60000E94A309882329F010920502109204020E
:101F7000EECF6FE473E081E490E10E94A30988232F
:101F800039F081E090E09093050280930402DFCF66
:101F900062E573E081E490E10E94A309882319F0CF
:101FA00082E090E0F0CF65E573E081E490E10E948B
:101FB000A309882319F085E090E0E5CF68E573E098
:101FC00081E490E10E94A309882319F083E090E066
:101FD000DACF6BE573E081E490E10E94A3098823E6
:101FE00039F0EAE0F0E0F0930502E0930402AFCFAD
:101FF0008091451090914610039708F46DCF82E6CA
:1020000093E00E94210981E490E10E94740960E25A
:1020100072E081E490E10E94460A5ECFFD85F432D1
:1020200051F40E949B0B81E08093990F0E94A70AB4
:102030000E94FE054ECF2D852A3009F0E9C381E0CC
:102040008093990F92E0E916F10409F4A6C10CF00F
:1020500041C0E114F10409F466C0F1E0EF16F104A7
:1020600009F4A4C01092980F1092970F1092990F34
:10207000EFEFFFEFF0930502E093040260E272E0FD
:1020800081E490E10E94460A2D85822F022E000CE9
:10209000990BC0970A9788F0822F8D52823068F092
:1020A0008B52833050F0865F823038F0293429F02B
:1020B000233419F0263409F04ACF8D8589831A829A
:1020C00041E050E0BE016F5F7F4F87E490E10E94E6
:1020D000E00902CF25E0E216F10409F45CC28AE0CF
:1020E000E816F10409F4B5C293E0E916F10409F029
:1020F000B9CFCE0101960E942D0A62E873E0CE01AD
:1021000001960E94A30961E0811109C065E873E0AE
:10211000CE0101960E94A309882309F160E088E0BE
:102120000E949C041CC0CE0101960E942D0ACE0183
:1021300001960E94FE03FC018081883599F463E0DA
:1021400070E090E080E00E94310710924B04109202
:102150004C0410924D0410924E040E942309CE01AB
:102160000196ADC0CE0101960E94FE03FC01808164
:102170008A3579F462E070E082E090E00E943107F5
:1021800010924704109248041092490410924A0495
:10219000E4CF63E070E090E080E00E94310762E00D
:1021A00070E082E090E00E943107D7CFCE01079621
:1021B0000E942D0A4B855C85BE01695F7F4FCE0171
:1021C00001960E94500A89819A81812C912C540198
:1021D000009721F00E9419144B015C01CE01019679
:1021E0000E949B09CE0107960E94FE03FC0180819C
:1021F000883599F5C0904B04D0904C04E0904D0484
:10220000F0904E04A5019401C701B6010E941A176F
:1022100020E030E048EC53E40E942E1887FD0AC00D
:10222000A701960160E070E088EC93E40E94191722
:102230004B015C01A5019401C701B6010E941A1768
:1022400060934B0470934C0480934D0490934E0420
:102250000CE310E0F12CE12C28C0CE0107960E947F
:10226000FE03FC018081893569F5A5019401609127
:10227000930F7091940F8091950F9091960F0E94FB
:102280001A176093930F7093940F8093950F909308
:10229000960F20E030E044EB53E4C501B4010E9406
:1022A00086174B015C010CE310E0A5019401642D3D
:1022B000C7010E9483060E942309CE0107960E944F
:1022C0009B09D0CECE0107960E94FE03FC018081BF
:1022D0008D3421F520E030E044EB53E4C501B40136
:1022E0000E9486174B015C01AC019B0160918F0F2E
:1022F0007091900F8091910F9091920F0E941A17F8
:1023000060938F0F7093900F8093910F9093920F23
:102310000CE310E063E0E62EF12CC7CFCE01079668
:102320000E94FE03FC0180818A3509F091CF209044
:102330004704309048044090490450904A04A50155
:102340009401C201B1010E941A1720E030E040E27E
:1023500052E40E942E1887FD0AC0A201910160E09C
:1023600070E080E292E40E9419174B015C01A50124
:102370009401C201B1010E941A176093470470933F
:1023800048048093490490934A04442443940AE007
:1023900010E052E0E52EF12C88CFCE0107960E9486
:1023A0002D0A4B855C85BE01695F7F4FCE0101968A
:1023B0000E94500A89819A81009709F444C00E94C2
:1023C0001914562EA72EB82EC92ECE0101960E94A2
:1023D0009B09CE0107960E94FE03FC01808188358F
:1023E000B9F5E0904B04F0904C0400914D0410912D
:1023F0004E04252D3A2D4B2D5C2DB701C8010E94AE
:10240000191720E030E0A9010E94D815181624F011
:102410005E2CAF2CB02EC12E252D3A2D4B2D5C2DD0
:10242000B701C8010E94191760934B0470934C04C4
:1024300080934D0490934E04442443940CE310E0A5
:10244000F12CE12C38C0512CA12CB12CC12CBDCFCA
:10245000CE0107960E94FE03FC018081893581F53B
:10246000252D3A2D4B2D5C2D6091930F7091940F7B
:102470008091950F9091960F0E9419176093930F7A
:102480007093940F8093950F9093960F20E030E017
:1024900044EB53E4652D7A2D8B2D9C2D0E948617DD
:1024A000562EA72EB82EC92E442443940CE310E0D8
:1024B000EE24E394F12C252D3A2D4B2D5C2DF7CEF7
:1024C000CE0107960E94FE03FC0180818D3461F5E8
:1024D000252D3A2D4B2D5C2D60918F0F7091900F13
:1024E0008091910F9091920F0E94191760938F0F16
:1024F0007093900F8093910F9093920F20E030E0B3
:1025000044EB53E4652D7A2D8B2D9C2D0E9486176C
:10251000562EA72EB82EC92E442443940CE310E067
:1025200033E0E32EF12CC7CFCE0107960E94FE03C5
:10253000FC0180818A3509F07FCF209047043090DC
:1025400048040091490410914A04252D3A2D4B2D41
:102550005C2DB101C8010E94191720E030E0A901EB
:102560000E94D815181624F0522CA32CB02EC12E80
:10257000252D3A2D4B2D5C2DB101C8010E94191754
:1025800060934704709348048093490490934A04ED
:102590000FE010E090CFCE0107960E942D0A6091C7
:1025A0004704709148048091490490914A040E9424
:1025B000F81770930102609300028F81988500974D
:1025C00009F443C00E941D14709303026093020239
:1025D00089E893E00E942109609100027091010254
:1025E000072E000C880B990B0E940B0885EA93E0DC
:1025F0000E94370868EA73E0CE0101960E94150B2D
:102600004B855C856F817885CE0101960E94E0093B
:10261000811104C0CE0101960E94890942E050E078
:1026200065EA73E0CE0101960E94E009811104C0C1
:10263000CE0101960E948909CE0101960E9474097B
:10264000CE0101960E949B0938CE60E070E0CB017C
:10265000BBCF84EC93E00E9421091092930F10925B
:10266000940F1092950F1092960F10928F0F109258
:10267000900F1092910F1092920F63E070E090E033
:1026800080E00E94310762E070E082E090E00E940A
:1026900031070E94230961E088E00E949C042FE436
:1026A000E22E24E0F22EF70181909190A190B1905A
:1026B0007F01609102027091030277FF02C06F5F99
:1026C0007F4F759567958091000290910102680F88
:1026D000791F072E000C880B990B0E94DF15A501AE
:1026E00094010E9419174B015C010FE010E0AC014E
:1026F0009B0161E082E090E00E9483068092930F4C
:102700009092940FA092950FB092960F0E94230979
:102710000CE310E020E030E048E453E4642D90E066
:1027200080E00E948306F1E04F2628EC249DB00152
:102730001124072E000C880B990B0E94DF15609363
:102740004B0470934C0480934D0490934E0460911D
:1027500002027091030277FF02C06F5F7F4F759591
:1027600067958091000290910102680F791F072EF2
:10277000000C880B990B0E94DF15F701349720811C
:102780003181428153810E9419179B01AC010FE0F6
:1027900010E060E082E090E00E948306109247041F
:1027A000109248041092490410924A0405E010E087
:1027B00021E63BE046EB5AE361E081E090E00E94D5
:1027C000830620E030E040E85FE36091930F709172
:1027D000940F8091950F9091960F0E941A17609315
:1027E000930F7093940F8093950F9093960F8FE8AB
:1027F000E8168FE0F80609F056CF60E088E00E9406
:102800009C0463E070E090E080E00E9431072ACCF5
:10281000FD85FD3019F0F03209F036CC0E949B0B9B
:102820005BCB81E490E10E949B0987E490E10C94EA
:102830009B09662777270C9459141F93FC0199274D
:102840008827BC01E89411911032E9F3193010F097
:102850001E30C8F31B3251F01D3249F4689406C093
:102860000E944414610F711D811D911D119110531F
:102870001A30B0F33EF490958095709561957F4F36
:102880008F4F9F4F1F910895592F482F372F262F75
:10289000660F771F881F991F660F771F881F991F64
:1028A000620F731F841F951F660F771F881F991F64
:1028B00008958F929F92AF92BF92CF92DF92EF9244
:1028C000FF920F931F93CF93DF935C017B01611500
:1028D000710519F0DB018D939C9385010F5F1F4FEC
:1028E000F501D0818D2F90E00E94B7156C01892BE6
:1028F000B9F5DD32B9F50F5F1F4FD5011196DC91A7
:10290000C1E05801F1E0AF1AB10843E050E064E5DE
:1029100071E0C5010E94C015892B69F5680182E04C
:10292000C80ED11C45E050E06FE471E0C6010E9482
:10293000C015892B21F4680197E0C90ED11CE11460
:10294000F10419F0D701CD92DC9260E070E080E8EC
:102950009FEFC111FFC060E070E080E89FE7FAC020
:102960005801BBCFDB3229F485010E5F1F4FF50103
:10297000D181C0E0C6CF43E050E06CE471E0C50116
:102980000E94C015892BE9F0F80110E000E020E07A
:1029900030E0A9015F01B0ED8B2E8D0E89E0881526
:1029A000C8F19C2E689491F88C2F8870C2FF16C0D5
:1029B000811102C00F5F1F4F3196D501DC91C92DE7
:1029C000E9CFE114F10429F00E5F1F4FF7011183E5
:1029D000008360E070E080EC9FE7BCC0882311F0CA
:1029E00001501109A5E0B0E00E94FF169B01AC0167
:1029F000220F331F441F551F280D311D411D511D2E
:102A0000283999E93907490799E15907A8F2C660B9
:102A10009C2ED2CFAEEF8A1206C0C3FD3CC09C2EC6
:102A2000689493F8C9CFDF7DD534A9F580818D32C4
:102A300039F4C061DF011296818162E070E006C066
:102A4000DF018B32C1F3119661E070E080535D01CC
:102A5000A61AB70A8A30F8F4E0E8CE16ECE0DE06F3
:102A60005CF4B601660F771F660F771FC60ED71E80
:102A7000CC0CDD1CC80ED11C5D01FFEFAF1ABF0AE4
:102A80008C9180538A30A8F1C4FF03C0D194C194C3
:102A9000D1080C0D1D1DC1FF09C0E114F10431F076
:102AA00081E0A81AB108D701AD92BC92CA01B90160
:102AB0000E94DD15C370C33009F490584B015C01CE
:102AC00020E030E0A9010E94D815882309F440C015
:102AD000C3E8D1E017FF05C0119501951109CBE6B8
:102AE000D1E06E01B8E1CB1AD10880E2E82EF12CDA
:102AF0000FC0D501B1CFFE0125913591459154917B
:102B00000E191F09C501B4010E943E164B015C015C
:102B1000D501C4010E151F0574F72497F594E794A9
:102B2000CC16DD06A9F78A2F880F8B2F881F8F3FC1
:102B300049F020E030E0A901C501B4010E94D81598
:102B4000811106C082E290E090934E1080934D1068
:102B5000C501B401DF91CF911F910F91FF90EF90CC
:102B6000DF90CF90BF90AF909F908F90089591117C
:102B70000C94AB16803219F089508550C8F708952F
:102B8000FB01DC014150504088F08D9181341CF0F4
:102B90008B350CF4805E659161341CF06B350CF460
:102BA000605E861B611171F3990B0895881BFCCF41
:102BB0000E941A1608F481E00895E89409C097FB72
:102BC0003EF490958095709561957F4F8F4F9F4F04
:102BD0009923A9F0F92F96E9BB279395F695879548
:102BE00077956795B795F111F8CFFAF4BB0F11F40B
:102BF00060FF1BC06F5F7F4F8F4F9F4F16C08823B2
:102C000011F096E911C0772321F09EE8872F762FE7
:102C100005C0662371F096E8862F70E060E02AF028
:102C20009A95660F771F881FDAF7880F9695879514
:102C300097F90895990F0008550FAA0BE0E8FEEFE9
:102C400016161706E807F907C0F012161306E40770
:102C5000F50798F0621B730B840B950B39F40A2669
:102C600061F0232B242B252B21F408950A2609F447
:102C7000A140A6958FEF811D811D08950E945116D8
:102C80000C94C5160E94B71638F00E94BE1620F0AC
:102C9000952311F00C94AE160C94B41611240C94D8
:102CA000F9160E94D61670F3959FC1F3950F50E068
:102CB000551F629FF001729FBB27F00DB11D639FEE
:102CC000AA27F00DB11DAA1F649F6627B00DA11D94
:102CD000661F829F2227B00DA11D621F739FB00D3A
:102CE000A11D621F839FA00D611D221F749F3327AA
:102CF000A00D611D231F849F600D211D822F762F43
:102D00006A2F11249F5750409AF0F1F088234AF01F
:102D1000EE0FFF1FBB1F661F771F881F915050408B
:102D2000A9F79E3F510580F00C94AE160C94F9164D
:102D30005F3FE4F3983ED4F3869577956795B79512
:102D4000F795E7959F5FC1F7FE2B880F911D96952C
:102D5000879597F9089599278827089597F99F6788
:102D600080E870E060E008959FEF80EC0895002413
:102D70000A941616170618060906089500240A94E0
:102D800012161306140605060895092E0394000C66
:102D900011F4882352F0BB0F40F4BF2B11F460FFF5
:102DA00004C06F5F7F4F8F4F9F4F089557FD90581E
:102DB000440F551F59F05F3F71F04795880F97FBFF
:102DC000991F61F09F3F79F08795089512161306B9
:102DD0001406551FF2CF4695F1DF08C016161706E8
:102DE0001806991FF1CF869571056105089408951D
:102DF000E894BB2766277727CB0197F908950E94AF
:102E00000A17A59F900DB49F900DA49F800D911D52
:102E100011240895A29FB001B39FC001A39F700D1C
:102E2000811D1124911DB29F700D811D1124911DD2
:102E300008955058BB27AA270E9431170C94C51635
:102E40000E94B71638F00E94BE1620F039F49F3F5A
:102E500019F426F40C94B4160EF4E095E7FB0C94E8
:102E6000AE16E92F0E94D61658F3BA1762077307F9
:102E70008407950720F079F4A6F50C94F8160EF463
:102E8000E0950B2EBA2FA02D0B01B90190010C017A
:102E9000CA01A0011124FF27591B99F0593F50F492
:102EA000503E68F11A16F040A22F232F342F4427EA
:102EB000585FF3CF469537952795A795F0405395E2
:102EC000C9F77EF41F16BA0B620B730B840BBAF0B2
:102ED0009150A1F0FF0FBB1F661F771F881FC2F71D
:102EE0000EC0BA0F621F731F841F48F48795779531
:102EF0006795B795F7959E3F08F0B0CF9395880FEB
:102F000008F09927EE0F9795879508950E949A17D4
:102F10000C94C5160E94BE1658F00E94B71640F0D9
:102F200029F45F3F29F00C94AE1651110C94F91658
:102F30000C94B4160E94D61668F39923B1F3552366
:102F400091F3951B550BBB27AA27621773078407BC
:102F500038F09F5F5F4F220F331F441FAA1FA9F352
:102F600035D00E2E3AF0E0E832D091505040E69540
:102F7000001CCAF72BD0FE2F29D0660F771F881FA1
:102F8000BB1F261737074807AB07B0E809F0BB0B94
:102F9000802DBF01FF2793585F4F3AF09E3F5105A8
:102FA00078F00C94AE160C94F9165F3FE4F3983E5B
:102FB000D4F3869577956795B795F7959F5FC9F791
:102FC000880F911D9695879597F90895E1E0660F12
:102FD000771F881FBB1F621773078407BA0720F08B
:102FE000621B730B840BBA0BEE1F88F7E0950895F4
:102FF0000E94FF176894B1110C94F91608950E946D
:10300000DE1688F09F5798F0B92F9927B751B0F086
:10301000E1F0660F771F881F991F1AF0BA95C9F75C
:1030200014C0B13091F00E94F816B1E008950C94EC
:10303000F816672F782F8827B85F39F0B93FCCF39F
:10304000869577956795B395D9F73EF490958095D9
:10305000709561957F4F8F4F9F4F08950E941A166C
:1030600008F48FEF08950E941A16880B990B0895A3
:10307000A1E21A2EAA1BBB1BFD010DC0AA1FBB1F7C
:10308000EE1FFF1FA217B307E407F50720F0A21BEE
:10309000B30BE40BF50B661F771F881F991F1A945B
:1030A00069F760957095809590959B01AC01BD0185
:1030B000CF010895052E97FB1EF400940E9471180D
:1030C00057FD07D00E94381807FC03D04EF40C942B
:1030D000711850954095309521953F4F4F4F5F4F58
:1030E000089590958095709561957F4F8F4F9F4F74
:1030F0000895EE0FFF1F881F8BBF0790F691E02DFC
:1031000019940F931F93CF93DF938230910510F49E
:1031100082E090E0E0915110F091521030E020E018
:10312000B0E0A0E0309799F42115310509F44AC0C8
:10313000281B390B24303105D8F58A819B81611514
:10314000710589F1FB0193838283FE0111C04081E7
:1031500051810281138148175907E0F04817590738
:1031600099F4109761F012960C93129713961C9392
:103170003296CF01DF91CF911F910F910895009367
:10318000511010935210F4CF2115310551F0421710
:10319000530738F0A901DB019A01BD01DF01F801F5
:1031A000C1CFEF01F9CF9093521080935110CDCF42
:1031B000FE01E20FF31F819391932250310939836D
:1031C0002883D7CF20914F1030915010232B41F4FA
:1031D00020910802309109023093501020934F1033
:1031E00020910602309107022115310541F42DB7D7
:1031F0003EB740910A0250910B02241B350BE0911F
:103200004F10F0915010E217F307A0F42E1B3F0B64
:103210002817390778F0AC014E5F5F4F2417350748
:1032200048F04E0F5F1F5093501040934F10819302
:1032300091939FCFF0E0E0E09CCFCF93DF93009796
:10324000E9F0FC01329713821282A0915110B091E3
:103250005210ED0130E020E01097A1F4208131817F
:10326000820F931F20914F1030915010281739076B
:1032700009F061C0F0935010E0934F10DF91CF91AF
:103280000895EA01CE17DF07E8F54A815B819E01C8
:1032900041155105B1F7E901FB83EA834991599141
:1032A000C40FD51FEC17FD0761F480819181029650
:1032B000840F951FE90199838883828193819B8381
:1032C0008A83F0E0E0E012968D919C91139700972D
:1032D000B9F52D913C911197CD010296820F931F64
:1032E00020914F10309150102817390739F6309738
:1032F00051F51092521010925110B0935010A093AB
:103300004F10BCCFD383C28340815181840F951F5E
:10331000C817D90761F44E5F5F4F88819981480FC4
:10332000591F518340838A819B8193838283211516
:10333000310509F0B0CFF0935210E09351109ECFB9
:10334000FD01DC01C0CF13821282D7CF4F925F9272
:103350006F927F928F929F92AF92BF92CF92DF92A5
:10336000EF92FF920F931F93CF93DF938C010097FF
:1033700099F4CB01DF91CF911F910F91FF90EF90C6
:10338000DF90CF90BF90AF909F908F907F906F9085
:103390005F904F900C948118FC01E60FF71F9C0181
:1033A00022503109E217F30708F4AEC0D901CD91DC
:1033B000DC911197C617D70720F1C530D10578F0F9
:1033C000CE0104978617970750F0C61BD70B22979C
:1033D000C193D1936D937C93CF010E941D19C801B5
:1033E000DF91CF911F910F91FF90EF90DF90CF90E1
:1033F000BF90AF909F908F907F906F905F904F9015
:1034000008955B01AC1ABD0A4C018C0E9D1EA09163
:103410005110B0915210512C412CF12CE12C1097ED
:1034200031F580914F10909150108815990509F051
:103430005CC04616570608F058C08091060290916D
:103440000702009741F48DB79EB740910A02509150
:103450000B02841B950BE817F90708F055C0F09391
:103460005010E0934F10F90171836083B8CF8D91B4
:103470009C91119712966C90129713967C901397CB
:10348000A815B90559F56C0142E0C40ED11CCA1447
:10349000DB0420F1AC014A195B09DA011296159799
:1034A00080F06282738251834083D9016D937C9353
:1034B000E114F10471F0D7011396FC93EE93129787
:1034C0008ECF22968C0F9D1FF90191838083F3018B
:1034D000EFCFF0935210E093511081CF4816590668
:1034E00008F42C017D01D3019ACFCB010E948118F1
:1034F0007C01009749F0AE01B8010E94871AC8010B
:103500000E941D1987016BCF10E000E068CFFB011E
:10351000DC0102C001900D9241505040D8F708954F
:10352000FB01DC018D91019080190110D9F3990BF9
:103530000895FB01DC0101900D920020E1F7089550
:1035400013E0CAECD3E000E006C0802FFE010E9429
:1035500079182196011DCB3CD10780E00807A9F717
:10356000F894FFCF0F001600FFFF000053108000FB
:10357000000000009105FB042805DE05590537050C
:103580004B050D0A006E616E00696E66006F76660F
:10359000002020583A002020593A0020205A3A00B2
:1035A0000A2D2D2D204441544F5320434152474171
:1035B000444F5320454E204D454D4F5249412043E5
:1035C0004F4E20C3895849544F202D2D2D00546F44
:1035D00074616C2064652066696C6173207265613A
:1035E0006C6573206775617264616461733A200071
:1035F00046696C61205B005D3A20002E2E2E205B18
:103600004461746F7320696E7465726D6564696F6F
:1036100073206F63756C746F732070617261206EBC
:103620006F2073617475726172206C612070616EBD
:1036300074616C6C615D202E2E2E000A5B41564930
:10364000534F5D204D656D6F726961206C6C656EC6
:10365000612E20536520616C63616E7A61726F6EBA
:10366000206C6173203336302066696C61732E00E4
:10367000473939005B4F4B5D20436F6D616E646F5E
:10368000204739392064657465637461646F2E2046
:10369000496E696369616E646F207265636570630A
:1036A000696F6E206465206461746F732E2E2E0026
:1036B0004730004731004732004735005331004959
:1036C0004E4943494F005B4552524F525D20436F74
:1036D0006D616E646F206E6F207265636F6E6F63D5
:1036E00069646F3A20004F4E004F4646004C6120FF
:1036F000616C747572612073656C656363696F6E6C
:103700006164612065733A20006D6D006469616DCC
:103710006574726F206465206C6120766172696CDB
:103720006C612065733A200050726F6772616D6141
:0A37300020696E69636961646F002F
:020000040003F7
:10E000000D9489F10D94B2F10D94B2F10D94B2F129
:10E010000D94B2F10D94B2F10D94B2F10D94B2F1F0
:10E020000D94B2F10D94B2F10D94B2F10D94B2F1E0
:10E030000D94B2F10D94B2F10D94B2F10D94B2F1D0
:10E040000D94B2F10D94B2F10D94B2F10D94B2F1C0
:10E050000D94B2F10D94B2F10D94B2F10D94B2F1B0
:10E060000D94B2F10D94B2F10D94B2F10D94B2F1A0
:10E070000D94B2F10D94B2F10D94B2F10D94B2F190
:10E080000D94B2F10D94B2F10D94B2F10D94B2F180
:10E090000D94B2F10D94B2F10D94B2F10D94B2F170
:10E0A0000D94B2F10D94B2F10D94B2F10D94B2F160
:10E0B0000D94B2F10D94B2F10D94B2F10D94B2F150
:10E0C0000D94B2F10D94B2F10D94B2F10D94B2F140
:10E0D0000D94B2F10D94B2F10D94B2F10D94B2F130
:10E0E0000D94B2F141546D656761323536300041AF
:10E0F000726475696E6F206578706C6F72657220DE
:10E1000073746B3530305632206279204D4C530099
:10E11000426F6F746C6F616465723E004875683F52
:10E1200000436F6D70696C6564206F6E203D200048
:10E130004350552054797065202020203D20005FF9
:10E140005F4156525F415243485F5F3D2000415658
:10E1500052204C696243205665723D20004743437C
:10E160002056657273696F6E203D20004350552024
:10E1700049442020202020203D20004C6F7720663D
:10E18000757365202020203D20004869676820665F
:10E190007573652020203D200045787420667573D6
:10E1A00065202020203D20004C6F636B2066757336
:10E1B000652020203D20004D617220203720323024
:10E1C000313300312E362E3800342E332E350056A2
:10E1D00023202020414444522020206F7020636F70
:10E1E00064652020202020696E73747275637469E1
:10E1F0006F6E2061646472202020496E74657272B3
:10E20000757074006E6F20766563746F7200726A49
:10E210006D702020006A6D70200057686174207056
:10E220006F72743A00506F7274206E6F7420737541
:10E2300070706F72746564004D7573742062652030
:10E2400061206C6574746572002000577269747483
:10E25000696E672045450052656164696E672045B7
:10E26000450045452065727220636E743D00504F35
:10E27000525400303D5A65726F2061646472003FF1
:10E280003D43505520737461747300403D454550C3
:10E29000524F4D207465737400423D426C696E6B41
:10E2A000204C454400453D44756D70204545505215
:10E2B0004F4D00463D44756D7020464C415348001B
:10E2C000483D48656C70004C3D4C69737420492F83
:10E2D0004F20506F72747300513D51756974005234
:10E2E0003D44756D702052414D00563D73686F7707
:10E2F00020696E7465727275707420566563746FF0
:10E30000727300593D506F727420626C696E6B00BD
:10E310002A0011241FBECFEFD1E2DEBFCDBF01E046
:10E320000CBF12E0A0E0B2E0EEE1FDEF03E00BBFB6
:10E3300002C007900D92A030B107D9F712E0A0E01B
:10E34000B2E001C01D92AE30B107E1F70F9460F367
:10E350000D948DFE01E20EBF0FEF0DBF11241FBE05
:10E360000D9460F30D9400F020E030E040ED57E0B4
:10E3700005C0FA013197F1F72F5F3F4F2817390792
:10E38000C0F308959C01260F311DC901A0E0B0E043
:10E390002F5F3F4FABBFFC018791882361F08093D3
:10E3A000C6008091C00086FFFCCF8091C0008064D1
:10E3B0008093C000EACF08958DE08093C6008091DD
:10E3C000C00086FFFCCF8091C00080648093C000B5
:10E3D0008AE08093C6008091C00086FFFCCF8091C8
:10E3E000C00080648093C00008950F94C2F10F9420
:10E3F000DCF10895FC019081992359F09093C600B7
:10E400008091C00086FFFCCF8091C0008064809323
:10E41000C0003196992379F70895282F982F929567
:10E420009F70892F805D8A3308F0895F8093C600D2
:10E430008091C00086FFFCCF8091C00080648093F3
:10E44000C000822F8F70982F905D9A3308F0995FEB
:10E450009093C6008091C00086FFFCCF8091C000E1
:10E4600080648093C00008959C01FB01853691056E
:10E470001CF46330710594F0C90164E670E00F94F8
:10E480002EFE605D7F4F6093C6008091C00086FFC6
:10E49000FCCF8091C00080648093C0002B30310598
:10E4A00014F43297B4F0C90164E670E00F942EFEC4
:10E4B0006AE070E00F942EFE605D7F4F6093C600AF
:10E4C0008091C00086FFFCCF8091C0008064809363
:10E4D000C000C9016AE070E00F942EFEC0968093E0
:10E4E000C6008091C00086FFFCCF8091C000806490
:10E4F0008093C00008951F93182F8EE692EE60E07F
:10E500000F94C2F11093C6008091C00086FFFCCF2B
:10E510008091C00080648093C0000F94DCF11F9153
:10E5200008952F923F924F925F926F927F928F92B7
:10E530009F92AF92BF92CF92DF92EF92FF920F9392
:10E540001F93DF93CF93CDB7DEB762970FB6F894E2
:10E55000DEBF0FBECDBF382E622ECA01DB015C01CB
:10E560006D01772420E2222E2E010894411C511CBB
:10E570008BC081E0A81680E0B80681E0C80680E084
:10E58000D80628F0C601AA27BB270F940DF2BB2797
:10E59000AD2D9C2D8B2D0F940DF28A2D0F940DF225
:10E5A0002092C6008091C00086FFFCCF8091C00001
:10E5B00080648093C0009DE29093C6008091C0006B
:10E5C00086FFFCCF8091C00080648093C0002092C1
:10E5D000C6008091C00086FFFCCF8091C00080649F
:10E5E0008093C00019828601750188249924A1E0D6
:10E5F0003A1651F03A1620F0B2E03B1661F409C029
:10E600000BBFF701779007C0C7010F9477FE782EF4
:10E6100002C0F7017080872D0F940DF22092C60082
:10E620008091C00086FFFCCF8091C0008064809301
:10E63000C000872D8052F401EF70F0708F3520F408
:10E64000E40DF51D708204C0E40DF51D8EE280839B
:10E650000894E11CF11C011D111D0894811C911CE2
:10E6600090E18916910409F0C2CF80E190E0A0E02A
:10E67000B0E0A80EB91ECA1EDB1E198AC2010F9493
:10E68000FAF10F94DCF16A94662009F072CF629679
:10E690000FB6F894DEBF0FBECDBFCF91DF911F91B3
:10E6A0000F91FF90EF90DF90CF90BF90AF909F9031
:10E6B0008F907F906F905F904F903F902F90089534
:10E6C0002F923F924F925F926F927F928F929F9282
:10E6D000AF92BF92CF92DF92EF92FF920F931F9370
:10E6E000DF93CF93CDB7DEB7CD53D1400FB6F894BB
:10E6F000DEBF0FBECDBF01E20EBF0FEF0DBF94B75F
:10E70000F894A89514BE80916000886180936000A1
:10E7100010926000789493FF05C0E0910002F091A0
:10E7200001021995279A2F9A8091C00082608093E8
:10E73000C00080E18093C40088E18093C1000000A4
:10E74000EE24FF24870144E0A42EB12CCC24DD2448
:10E7500024C0C5010197F1F70894E11CF11C011DCB
:10E76000111D21E2E2162EE4F20620E0020720E06D
:10E77000120718F031E0C32ED12CC801B70127ECE5
:10E780003BE140E050E00F9441FE611571058105C9
:10E79000910519F485B1805885B98091C00087FD35
:10E7A00003C0C114D104A9F2A6014F5F5F4FC25E3E
:10E7B000DE4F59834883CE51D140C25EDE4F8881FF
:10E7C0009981CE51D140019711F00D9410FEC05D9A
:10E7D000DE4F19821882C053D14060E0C15DDE4F28
:10E7E0001882CF52D14088249924C35DDE4F19820C
:10E7F0001882CD52D140C05EDE4F188219821A8233
:10E800001B82C052D140CE5CDE4F188219821A8220
:10E810001B82C253D140EE24FF2487010BBFF701B6
:10E8200007911691C45CDE4F19830883CC53D14005
:10E830000D940BFEC25EDE4F28813981CE51D1404E
:10E840002130310509F52091C600C25EDE4F1982E4
:10E850001882CE51D14022C02F5F3F4F4F4F5F4FA4
:10E86000213082E138078AE7480780E0580780F0C6
:10E87000C45CDE4FE881F981CC53D140EF5FFF4F9C
:10E8800019F0EE27FF27099420E030E040E050E047
:10E890008091C00087FFE0CF2091C600C35DDE4FAE
:10E8A00048815981CD52D1404F5F5F4FC35DDE4FEC
:10E8B00059834883CD52D140213209F063C64A3092
:10E8C000510508F05FC60894811C911C53E0851621
:10E8D000910409F059C600E010E018C081E280936D
:10E8E000C6008091C00086FFFCCF8091C00080648C
:10E8F0008093C0002F5F3F4F2931310579F70F9486
:10E90000DCF10F5F1F4F0530110519F020E030E0FA
:10E91000E5CF10920A0210920B0210920C02109294
:10E920000D02109206021092070210920802109235
:10E930000902109202021092030210920402109235
:10E9400005028FEE90EE60E00F94F5F180E191EE1C
:10E9500060E00F94C2F18091C00087FFFCCF9091DE
:10E96000C600903608F09F759032B8F09093C600BC
:10E970008091C00086FFFCCF8091C00080648093AE
:10E98000C000A0E2A093C6008091C00086FFFCCF2B
:10E990008091C00080648093C000983409F4D7C18E
:10E9A0009934B8F4923409F459C1933458F490333B
:10E9B00019F1903308F4E3C59F33A1F1903409F0C5
:10E9C000DEC5BDC0953409F470C1963409F0D7C5D1
:10E9D00098C1923509F42BC2933538F49C3409F46C
:10E9E000F5C1913509F0CBC518C2963509F445C279
:10E9F000993509F0C4C567C483E792EE62E00F94CD
:10EA0000F5F110920602109207021092080210927D
:10EA1000090210920A0210920B0210920C0210923C
:10EA20000D0213C18FE792EE62E00F94F5F18FEEC5
:10EA300090EE60E00F94F5F181E291EE60E00F94CA
:10EA4000C2F187EB91EE60E00F94F5F180E391EE77
:10EA500060E00F94C2F184EE90EE60E00F94F5F167
:10EA60008FE391EE60E00F94C2F186E090E061E008
:10EA700070E00F9434F20F94DCF18DE591EE60E0DC
:10EA80000F94C2F189EC91EE60E00F94F5F18EE401
:10EA900091EE60E00F94C2F183EC91EE60E00F9490
:10EAA000F5F18CE691EE60E00F94C2F18EE10F94E7
:10EAB0000DF288E90F940DF281E00F940DF20F949E
:10EAC000DCF18BE791EE60E00F94C2F119E0E0E039
:10EAD000F0E010935700E4918E2F0F940DF20F94F5
:10EAE000DCF18AE891EE60E00F94C2F1E3E0F0E03F
:10EAF00010935700E4918E2F0F940DF20F94DCF1D8
:10EB000089E991EE60E00F94C2F1E2E0F0E0109349
:10EB10005700E4918E2F0F940DF20F94DCF188EAE8
:10EB200091EE60E00F94C2F1E1E0F0E01093570045
:10EB30001491812F0F940DF20F94DCF107CF8BE825
:10EB400092EE62E00F94F5F18BE492EE60E00F94A8
:10EB5000F5F10F94DCF100E010E019C0C8016F2D51
:10EB60000F947FFEFF2031F489E492EE60E00F9471
:10EB7000C2F10BC0F092C6008091C00086FFFCCFAE
:10EB80008091C00080648093C0000F5F1F4FC80158
:10EB900081519F41A0E0B0E0ABBFFC01F790BAE229
:10EBA000FB1621F0E2E000301E07C1F60F94DCF105
:10EBB0000F94DCF187E592EE60E00F94F5F10F948D
:10EBC000DCF1CC24DD2400E010E01EC0C8010F946D
:10EBD00077FEF82E882331F489E492EE60E00F94FA
:10EBE000C2F10BC08093C6008091C00086FFFCCFAD
:10EBF0008091C00080648093C000FE1419F00894D6
:10EC0000C11CD11C0F5F1F4FC80181519F41A0E063
:10EC1000B0E0ABBFFC01E790FAE2EF1621F022E092
:10EC20000030120799F60F94DCF10F94DCF182E6C4
:10EC300092EE60E00F94C2F1C60161E070E00F94C3
:10EC400034F20F94DCF10F94DCF110920202109276
:10EC50000302109204021092050278CE89E992EE26
:10EC600062E00F94F5F1279A2F9A16C02F9880E052
:10EC700090E0E0EDF7E03197F1F7019684369105E9
:10EC8000C1F72F9A80E090E0E0EDF7E03197F1F7DF
:10EC9000019684369105C1F78091C00087FFE6CFC9
:10ECA0008091C00087FFFCCF64C485EA92EE62E0E9
:10ECB0000F94F5F140910202509103026091040219
:10ECC0007091050281E020E10F9491F2809102029F
:10ECD00090910302A0910402B091050280509F4FD1
:10ECE000AF4FBF4F8093020290930302A0930402A0
:10ECF000B093050280509041A040B04008F426CE69
:10ED0000A4CF83EB92EE62E00F94F5F140910602FE
:10ED100050910702609108027091090280E020E1A1
:10ED20000F9491F28091060290910702A09108023F
:10ED3000B091090280509F4FAF4FBF4F80930602A2
:10ED400090930702A0930802B0930902FFCD80ECD4
:10ED500092EE62E00F94F5F183E792EE60E00F949B
:10ED6000F5F18FE792EE60E00F94F5F18BE892EE0B
:10ED700060E00F94F5F189E992EE60E00F94F5F10F
:10ED800085EA92EE60E00F94F5F183EB92EE60E09D
:10ED90000F94F5F180EC92EE60E00F94F5F187ECC2
:10EDA00092EE60E00F94F5F188ED92EE60E00F9442
:10EDB000F5F18FED92EE60E00F94F5F18AEE92EEB0
:10EDC00060E00F94F5F183E093EEBDCD87EC92EE19
:10EDD00062E00F94F5F181E40F947BF282E40F94EA
:10EDE0007BF283E40F947BF284E40F947BF285E45E
:10EDF0000F947BF286E40F947BF287E40F947BF20E
:10EE000088E40F947BF28AE40F947BF28BE40F94F6
:10EE10007BF28CE40F947BF299CD88ED92EE62E068
:10EE20000F94F5F1772473948824992409C48FED05
:10EE300092EE62E00F94F5F140910A0250910B02BC
:10EE400060910C0270910D0282E020E10F9491F22A
:10EE500080910A0290910B02A0910C02B0910D02D8
:10EE600080509F4FAF4FBF4F80930A0290930B0289
:10EE7000A0930C02B0930D0269CD8AEE92EE62E08F
:10EE80000F94F5F184EE90EE60E00F94F5F18FECC5
:10EE900091EE60E00F94F5F1662477244301CC5D98
:10EEA000DE4F19821882C452D140D401C301B695F5
:10EEB000A79597958795CA5DDE4F88839983AA8326
:10EEC000BB83C652D140CC5DDE4FA881B981C4520C
:10EED000D1401196CC5DDE4FB983A883C452D14096
:10EEE000CD0162E070E00F9434F2B0E2B093C6005E
:10EEF0008091C00086FFFCCF8091C0008064809329
:10EF0000C000EDE2E093C6008091C00086FFFCCF18
:10EF10008091C00080648093C000F0E2F093C6004E
:10EF20008091C00086FFFCCF8091C00080648093F8
:10EF3000C000CA5DDE4FE880F9800A811B81C6529D
:10EF4000D140BB27A12F902F8F2D0F940DF2CA5DBA
:10EF5000DE4F8881C652D1400F940DF2B0E2FB2EF5
:10EF6000F092C6008091C00086FFFCCF8091C00067
:10EF700080648093C0000DE30093C6008091C000C0
:10EF800086FFFCCF8091C00080648093C00010E2B7
:10EF90001093C6008091C00086FFFCCF8091C00016
:10EFA00080648093C0008BBEF3012791C65DDE4F65
:10EFB0002883CA52D140A22EBB24CC24DD2408943D
:10EFC000611C711C811C911C8BBEF3018791282E42
:10EFD0003324442455240894611C711C811C911C09
:10EFE0008BBEF3013791C55DDE4F3883CB52D140E4
:10EFF0000894611C711C811C911C8BBEF30147910C
:10F00000C45DDE4F4883CC52D140ADEFEA2EAFEF66
:10F01000FA2EAFEF0A2FAFEF1A2F6E0C7F1C801E57
:10F02000911E142D032DF22CEE24EA0CFB1C0C1D5A
:10F030001D1D0F940DF220E22093C6008091C000A8
:10F0400086FFFCCF8091C00080648093C000C65DC5
:10F05000DE4F8881CA52D1400F940DF230E23093D6
:10F06000C6008091C00086FFFCCF8091C000806404
:10F070008093C000C45DDE4F8881CC52D1400F9494
:10F080000DF240E24093C6008091C00086FFFCCFA5
:10F090008091C00080648093C000C55DDE4F888190
:10F0A000CB52D1400F940DF250E25093C6008091A4
:10F0B000C00086FFFCCF8091C00080648093C000B8
:10F0C0008FEFE8168FEFF80680E0080780E018075A
:10F0D00031F484E092EE60E00F94C2F1DFC0D80119
:10F0E000C7018070907CA070B0708050904CA040A0
:10F0F000B040D1F52FEF3FE340E050E0E222F322B1
:10F1000004231523CA5DDE4FA880B980CA80DB8046
:10F11000C652D140AE0CBF1CC01ED11EAA0CBB1CD7
:10F12000CC1CDD1C8EE092EE60E00F94C2F1BB2798
:10F13000A12F902F8F2D0F940DF28E2D0F940DF285
:10F1400030E23093C6008091C00086FFFCCF8091F2
:10F15000C00080648093C0004EE34093C60080915D
:10F16000C00086FFFCCF87C08EE09EEFA0E0B0E03D
:10F17000E822F9220A231B239CE0E91694E9F90608
:10F1800090E0090790E0190709F088C0C45DDE4FE0
:10F19000A881CC52D140EA2EFF2400E010E0102FCD
:10F1A0000F2DFE2CEE24C55DDE4FB881CB52D14031
:10F1B000EB0EF11C011D111DD601C501817090706F
:10F1C000A070B070DC0199278827E80EF91E0A1F8D
:10F1D0001B1F20EF30E040E050E0A222B322C42207
:10F1E000D52241E1AA0CBB1CCC1CDD1C4A95D1F7F1
:10F1F000EA0CFB1C0C1D1D1D81E090E0A0E0B0E0BE
:10F20000282239224A225B2235E1220C331C441C7D
:10F21000551C3A95D1F7E20CF31C041D151D57013E
:10F220006801AA0CBB1CCC1CDD1C85E192EE60E0E1
:10F230000F94C2F1C801AA27BB270F940DF2BB2778
:10F24000A12F902F8F2D0F940DF28E2D0F940DF274
:10F2500090E29093C6008091C00086FFFCCF809121
:10F26000C00080648093C000AEE3A093C60080918C
:10F27000C00086FFFCCF8091C00080648093C000F6
:10F28000C601AA27BB270F940DF2BB27AD2D9C2DDD
:10F290008B2D0F940DF28A2D0F940DF20F94DCF14B
:10F2A000CC5DDE4FE881F981C452D140F99709F471
:10F2B0004DCBF4E0EF2EF12C012D112D6E0C7F1CA7
:10F2C000801E911EF2CD83E093EE62E00F94F5F183
:10F2D0008AE192EE60E00F94C2F18091C00087FF56
:10F2E000FCCF1091C6001F751093C6008091C0001E
:10F2F00086FFFCCF8091C00080648093C0000F9493
:10F30000DCF1812F81548A3108F036C1163409F4BA
:10F3100095C0173490F4133409F44EC0143430F40B
:10F320001134F1F0123409F01DC130C0143409F465
:10F3300059C0153409F016C16BC01A3409F4C4C0A1
:10F340001B3438F4173409F48FC0183409F00AC19B
:10F35000A1C01B3409F4D2C01C3409F003C1E8C0B9
:10F360008FEF81B90DC082B1809582B980E090E0C5
:10F37000E0EDF7E03197F1F70196883C9105C1F790
:10F380008091C00087FFEFCF12B8EFC08FEF84B934
:10F390000DC085B1809585B980E090E0E0EDF7E0A3
:10F3A0003197F1F70196883C9105C1F78091C00033
:10F3B00087FFEFCF15B8D9C08FEF87B90DC088B1DF
:10F3C000809588B980E090E0E0EDF7E03197F1F7C3
:10F3D0000196883C9105C1F78091C00087FFEFCF6F
:10F3E00018B8C3C08FEF8AB90DC08BB180958BB9A7
:10F3F00080E090E0E0EDF7E03197F1F70196883C8E
:10F400009105C1F78091C00087FFEFCF1BB8ADC059
:10F410008FEF8DB90DC08EB180958EB980E090E0F0
:10F42000E0EDF7E03197F1F70196883C9105C1F7DF
:10F430008091C00087FFEFCF1EB897C08FEF80BBD1
:10F440000DC081B3809581BB80E090E0E0EDF7E0F6
:10F450003197F1F70196883C9105C1F78091C00082
:10F4600087FFEFCF11BA81C08FEF83BB0DC084B38C
:10F47000809584BB80E090E0E0EDF7E03197F1F714
:10F480000196883C9105C1F78091C00087FFEFCFBE
:10F4900014BA6BC08FEF809301010FC080910201FD
:10F4A00080958093020180E090E0E0EDF7E03197F5
:10F4B000F1F70196883C9105C1F78091C00087FF64
:10F4C000EDCF1092020151C08FEF809304010FC065
:10F4D0008091050180958093050180E090E0E0ED4A
:10F4E000F7E03197F1F70196883C9105C1F78091DB
:10F4F000C00087FFEDCF1092050137C08FEF8093DA
:10F5000007010FC08091080180958093080180E079
:10F5100090E0E0EDF7E03197F1F70196883C910536
:10F52000C1F78091C00087FFEDCF109208011DC088
:10F530008FEF80930A010FC080910B01809580931B
:10F540000B0180E090E0E0EDF7E03197F1F70196F4
:10F55000883C9105C1F78091C00087FFEDCF1092E4
:10F560000B0103C085E292EEEEC98091C00087FFD7
:10F57000FCCF8091C600EAC988E392EEE4C98CE131
:10F5800091EEE1C988249924933011F1943028F444
:10F59000913089F09230B8F408C0953061F195301F
:10F5A000F0F0963009F048C043C02B3109F042C951
:10F5B00091E06BE13FC96227C15DDE4F2883CF52E6
:10F5C000D14092E037C9B22FA0E0622793E032C960
:10F5D000822F90E0A82BB92B622794E02BC92E3004
:10F5E00009F039C3622795E0C05DDE4F19821882A9
:10F5F000C053D1401FC9E1E0F0E0EC0FFD1FC05D3A
:10F60000DE4F08811981C053D140E00FF11F2083E4
:10F610000F5F1F4FC05DDE4F19830883C053D14079
:10F6200062270A171B0709F005C9D80196E002C92D
:10F63000261709F010C303C0973009F0FBC87724E0
:10F640009981933109F412C19431C8F4963009F4C8
:10F65000D8C0973050F4923009F406C1933009F4C1
:10F660006DC0913009F059C253C0913109F477C08F
:10F67000923108F0BBC0903109F04FC2F5C098310B
:10F6800009F487C0993150F4953109F4EFC09531F0
:10F6900008F4C6C1963109F040C2C2C19A3109F4DA
:10F6A0006CC09A3108F491C09B3109F45BC09D3164
:10F6B00009F033C29D81903359F48F81882311F46E
:10F6C0009EE11CC0813011F091E018C098E916C08D
:10F6D000892F807591F0903539F4E0E0F0E089E011
:10F6E0008093570094910AC0983539F4E3E0F0E034
:10F6F00089E080935700949101C090E01A821B82A8
:10F700008D818C831D829E831F8227E030E009C299
:10F710001A8288E08B8381E48C8386E58D8382E581
:10F720008E8389E48F8383E5888780E589878FE5E9
:10F730008A8782E38B872BE030E0F3C18A818139AD
:10F7400041F0823941F0803911F48FE005C080E04A
:10F7500003C082E001C08AE01A828B8344C0772410
:10F76000739482C08D81882311F48EE12CC0813086
:10F7700011F081E028C088E926C01A82E1E0F0E0BB
:10F7800089E08093570084918B831C8224E030E0D1
:10F79000C8C18B81803589F48C81883039F4E2E0EE
:10F7A000F0E089E08093570084910DC0E0E0F0E044
:10F7B00089E080935700849106C0E3E0F0E089E09F
:10F7C0008093570084911A82DFCF8D81836C99E0FA
:10F7D000E1E0F0E0082E90935700E89507B600FCB2
:10F7E000FDCF1A821B8223E030E09BC180EC8A832C
:10F7F000CE5CDE4F188219821A821B82C253D1401E
:10F800008EC18A8190E0A0E0B0E0582F44273327D2
:10F8100022278B8190E0A0E0B0E0DC0199278827C7
:10F82000282B392B4A2B5B2B8D8190E0A0E0B0E098
:10F83000282B392B4A2B5B2B8C8190E0A0E0B0E089
:10F84000BA2FA92F982F8827282B392B4A2B5B2BCF
:10F85000220F331F441F551FC05EDE4F288339839C
:10F860004A835B83C052D1401A8259C13A81C95C34
:10F87000DE4F3883C753D140CA5CDE4F1882C6536F
:10F88000D1408B81C82EDD24CA5CDE4F488159816E
:10F89000C653D140C42AD52A933109F082C0CE5C28
:10F8A000DE4F88819981AA81BB81C253D1408050AB
:10F8B000904CA340B04030F583E0CE5CDE4FE88052
:10F8C000F9800A811B81C253D140F70100935B008C
:10F8D00080935700E89507B600FCFDCFCE5CDE4F65
:10F8E000088119812A813B81C253D14000501F4FAA
:10F8F0002F4F3F4FCE5CDE4F088319832A833B8313
:10F90000C253D140C05EDE4F488159816A817B81FC
:10F91000C052D140DE011B9631E08C9111962C91A2
:10F9200011971296C75CDE4F2883C953D140C85C3B
:10F93000DE4F1882C853D14090E0C85CDE4FE881AA
:10F94000F981C853D1408E2B9F2B0C01FA01609393
:10F950005B0030935700E89511244E5F5F4F6F4F67
:10F960007F4F0EEFE02E0FEFF02ECE0CDF1CC114F8
:10F97000D10499F685E0C05EDE4F088119812A81A5
:10F980003B81C052D140F80120935B008093570027
:10F99000E89507B600FCFDCF81E180935700E8951C
:10F9A00035C0C05EDE4F88819981AA81BB81C0527B
:10F9B000D140B695A795979587957C018601ABE0D8
:10F9C000AA2EB12CAC0EBD1E0BC0D5016D915D01F0
:10F9D000C7010F947FFE0894E11CF11C01501040F8
:10F9E0000115110591F7A60160E070E0440F551F65
:10F9F000661F771FC05EDE4FE880F9800A811B8199
:10FA0000C052D1404E0D5F1D601F711F1A82C05E33
:10FA1000DE4F488359836A837B83C052D1407FC0C5
:10FA2000FA80C55CDE4FF882CB53D140C65CDE4F16
:10FA30001882CA53D1408B81C82EDD24C65CDE4FAC
:10FA400008811981CA53D140C02AD12A1A828981DA
:10FA5000BE016D5F7F4F843121F59601C05EDE4FA0
:10FA6000E880F9800A811B81C052D1400BBFF701A9
:10FA700087919691DB018C9311969C936E5F7F4FDB
:10FA8000D801C7010296A11DB11DC05EDE4F88835B
:10FA90009983AA83BB83C052D14022503040F1F6F3
:10FAA00036C0C05EDE4F288139814A815B81C052F9
:10FAB000D1400894C108D108760100E010E0089414
:10FAC000C11CD11C0894E11CF11C011D111DE20E8A
:10FAD000F31E041F151F21BDBB27A52F942F832FB5
:10FAE00082BD2F5F3F4F4F4F5F4FF89A80B5DB01CC
:10FAF0008D93BD012E153F054007510761F7C05E8C
:10FB0000DE4F288339834A835B83C052D1409601FC
:10FB10002D5F3F4FFB01108204C080EC8A8322E0FE
:10FB200030E08BE18093C6008091C00086FFFCCF5F
:10FB30008091C00080648093C000C15DDE4FF88179
:10FB4000CF52D140F093C6008091C00086FFFCCF19
:10FB50008091C00080648093C000432F3093C60022
:10FB60008091C00086FFFCCF8091C00080648093AC
:10FB7000C000922F2093C6008091C00086FFFCCF6A
:10FB80008091C00080648093C0008EE08093C600A6
:10FB90008091C00086FFFCCF8091C000806480937C
:10FBA000C00065E1C15DDE4FE880CF52D1406E25D7
:10FBB00069276427FE01319610C090819093C6009A
:10FBC0008091C00086FFFCCF31968091C000806498
:10FBD0008093C0006927215030402115310569F715
:10FBE0006093C6008091C00086FFFCCF8091C0006A
:10FBF00080648093C00085B1805885B9772081F4F6
:10FC0000C15DDE4F0881CF52D1400F5FC15DDE4F35
:10FC10000883CF52D14090E0A0E0B0E00D941AF4F8
:10FC200027982F9880E090E020ED37E0F901319798
:10FC3000F1F7019684369105C9F700008091C00064
:10FC40008D7F8093C00081E180935700E895EE2777
:10FC5000FF270994FFCF90E00D941AF497FB092E2B
:10FC600007260AD077FD04D02ED006D000201AF443
:10FC7000709561957F4F0895F6F7909581959F4F08
:10FC80000895A1E21A2EAA1BBB1BFD010DC0AA1FDD
:10FC9000BB1FEE1FFF1FA217B307E407F50720F0F5
:10FCA000A21BB30BE40BF50B661F771F881F991F70
:10FCB0001A9469F760957095809590959B01AC01B9
:10FCC000BD01CF010895AA1BBB1B51E107C0AA1FAC
:10FCD000BB1FA617B70710F0A61BB70B881F991FED
:10FCE0005A95A9F780959095BC01CD010895F99991
:10FCF000FECF92BD81BDF89A992780B50895262F31
:10FD0000F999FECF1FBA92BD81BD20BD0FB6F89400
:0EFD1000FA9AF99A0FBE01960895F894FFCF63
:00000001FF
